:030000000212F1F8
:0C12F100787FE4F6D8FD758120021338E8
:0C18330012183F12183F12183F12183F05
:05183F00007F63DFFEE5
:011844002281
:10000300AD07AC06ED1DAE0470011C4E600812185E
:070013003312183380EE22C6
:1010FC00202020205344BFA8BFC9D3C320202020C8
:10110C00005344BFA8B2BBBFC9D3C32020202020AA
:10111C0020005344BFA8B2BBD6A7B3D620202020B2
:10112C00202000B0B4A3C1BCFCBCCCD0F82E2E2E19
:10113C0000202020202020202020202020202020C3
:10114C0020004C6F6164696E672E2E2E00202042A9
:10115C006164204170706C65212100C4BAB9E2D081
:10116C00A1D4B3777A7420D6C6D7F700DFD9C1A83B
:10117C00DFD9C1A820202020B8C9B1AD00B0B4A3DC
:10118C00C2BCFCB2A5B7C500B2A5B7C5D6D020204D
:09119C002020E0D3E0D3E0D300F1
:0A189F003095FD7F647E0002000317
:0A18A9003097FD7F647E000200030B
:10147300120FB27800E26401700EFDFF1216F27BC8
:10148300FF7A1079FC02179C7800E2700DFDFF12C1
:1014930016F27BFF7A11790D800CE4FDFF1216F230
:1014A3007BFF7A11791E12179C12183FE4FD7F030C
:1014B3001216F27BFF7A11792F12179C12189FE4F0
:1014C300FD7F031216F27BFF7A11793D12179C8080
:0114D3009F79
:1011A5007FC87E001200031218031214D412181FF0
:1011B5007BFF7A11794E12179C7FBC7E02120003C9
:1011C5001214731204CA1200267801E2FC08E2FD2B
:1011D50008E2FE08E2FFEC4D4E4F700280FEE4FD92
:1011E5007F031216F27BFF7A11792F12179C1218C2
:1011F5009F120AF51218947BFF7A11795912179CE0
:10120500E4FD7F011216F27BFF7A11796712179CB4
:10121500E4FD7F021216F27BFF7A11797812179C92
:10122500E4FD7F031216F27BFF7A11798912179C70
:101235001218A9E4FD7F031216F27BFF7A11799447
:0812450012179C120C9580FEAB
:1017E700E4FEEEC3940874809480500FEF3392A107
:0B17F700EF25E0FFD2A2C2A20E80E7A7
:0118020022C3
:0A1773007841EFF212177D12177D86
:10177D00E4FFFEEEC39408748094805011EF25E0D1
:0E178D00FFD2A230A3034401FFC2A20E80E5EA
:01179B00222B
:0F15D300E47877F208F20874FFF2E4FBFD7F770B
:1015E2007C1E1217E7AF051217E7AF031217E77851
:1015F20077E2FF1217E708E2FF1217E708E2FF128D
:1016020017E712177D12177DAE041CEE6004EFF48B
:0216120060F383
:0116140022B3
:0A18B300D2A07FFF1217E7C2A022A7
:03001E00D2A0224B
:100FB200D2A2D2A0D2A1D2A3E47800F27840F278F1
:100FC20040E2C3947874809480500D0000C2A20065
:100FD20000D2A2E204F280E7C2A212183F1218B3B2
:100FE200E47877F208F2087495F2E4FBFD7F401290
:100FF20015E27841EFF212001EE264016002C322A0
:1010020012183F1218B378777401F20874AAF20822
:101012007487F2E4FBFD7F481215E2121773121770
:101022007D12001EE26401706A78007402F2784058
:10103200741EF212183F1218B31215D3E47877F225
:1010420008F20874FFF27D407F691215E27841EFE1
:10105200F212001EE230E00818E2FF14F2EF70D341
:101062007840E27002C32212183F1218B3E4787774
:10107200F208F20874FFF2E4FBFD7F7A1215E21225
:10108200177D12177312001EE230E6057800740411
:10109200F2C3227841E26405705E12183F1218B35F
:1010A2007840741EF21215D3E47877F208F20874CD
:1010B200FFF27F691215E27841EFF218E2FF14F2B3
:1010C200EF600508E220E0DD7840E2600A12001ECF
:1010D20078007401F2D322E47877F208F20874FF00
:1010E200F2E4FBFD7F411215E27841EFF2700778DE
:0910F200007403F2D322C322C3EF
:0110FB0022D2
:05124D007870120AD0C8
:101252007800E2640460177870E2FC08E2FD08E2BC
:10126200FE08E2FF7809120ABD7870120AD07A1ECF
:101272007870E2FC08E2FD08E2FE08E2FF7818124C
:101282000AAAAD07C0057870E2FC08E2FD08E2FE9A
:1012920008E2FF7810120AAAAB077870E2FC08E2B3
:1012A200FD08E2FE08E2FF7808120AAA7877EFF258
:1012B2007870E2FC0808E2FE08E2FF7878EFF208B4
:1012C20074FFF2D0057F511215E2AE021AEE6003EE
:1012D200EF709DEF70177A1E12177DAE021AEE6044
:0E12E20005EF64FE70F2EA6002D322C322C35D
:0112F00022DB
:0F186900C2B5D2B6D2B4E580339202C2B4A202A5
:01187800224D
:1018450012186940FBC2B5C2B6C2B48F80D2B4C209
:02185500B422BB
:1018570012186940FBD2B5C2B6C2B48F80D2B4C2E7
:02186700B422A9
:1016F200EFFB7A0070047F80801CEB64014A700467
:101702007F908012EB64024A70047F888008EB6449
:0C171200034A70027F98EF2DFF0218457B
:0B1894007F01121845E4FD1F0216F250
:10181F00D2B77F341218457F301218457F0C12183B
:04182F0045021894C2
:0A179C007862EBF208EAF208E9F2C5
:1017A600E4FE7862E2FB08E2FA08E2F98E827583CB
:0D17B600001208FAFF60061218570E80E5B9
:0117C3002203
:051532007862120AD0EE
:10153700E4FBEBC394087480948050407862E2FC2B
:1015470008E2FD08E2FE08E2FFEB25E025E0FAC32A
:10155700741C9AF9F8120AAAEF540FFFEF24307897
:101567006EF2D39439748094804004E22407F278B1
:101577006EE2FF74662BF8EFF20B80B67BFE7A0003
:02158700796683
:01158900223F
:10171E00EF75F0648424307845F2EF75F06484E55B
:10172E00F075F00A84243008F2EF75F00A84E5F0C3
:0A173E00243008F27BFE7A007945A2
:01174800227E
:04137D00AB07AA060A
:101381007C277D10120927EF24307845F27C277DD8
:1013910010AF03AE021209277E037FE8CFCDCFCE77
:1013A100CCCE120927EF24307846F27C037DE8AFDA
:1013B10003AE021209277E007F64CFCDCFCECCCE03
:1013C100120927EF24307847F27C007D64AF03AE29
:1013D100021209277E007F0ACFCDCFCECCCE1209D3
:1013E10027EF24307848F2AE02AF037C007D0A1269
:0E13F1000927ED24307849F27BFE7A00794519
:0113FF0022CB
:10140000B7D6C7F82020307800B7D6C7F8B5D8D6F9
:10141000B7B6C1C8A1CAA7B0DC00C3BFB4D8C9C899
:10142000C7F8202020202000B1A3C1F4C9C8C7F804
:101430002020200046415420D5BC307800B7D6C7C4
:10144000F8D0C5CFA2B6C1C8A1CAA7B0DC00CBD125
:10145000CBF74241444150504C452E42494E00D5B5
:10146000D2B5BD2020307800CEC4BCFECEB4D5D2DB
:03147000B5BD0007
:1004CA001218B37F007E007D007C0012124D40039B
:1004DA00020651E47840F208F212177D7841E224CC
:1004EA0001F218E23400F2C308E294C618E2940159
:1004FA0040E712177DE4FCFDFE780E120AD0780E52
:10050A00E2FB08E2F908E2FA08E2CBF8C000C0010F
:10051A00C002C00312177DEFFE3395E0FDFCD00345
:10052A00D002D001D000EBFFEA4EFEE94DFDE84CC7
:10053A00FC780E120AD0780EE2FB08E2F908E2FA19
:10054A0008E2CBF8C000C001C002C00312177D7ECA
:10055A0000EF7810C333CE33CED8F9FFEE3395E0EF
:10056A00FDFCD003D002D001D000EB4FFFEA4EFED3
:10057A00E94DFDE84CFC780E120AD0780EE2FB0831
:10058A00E2F908E2FA08E2CBF8C000C001C002C0F2
:10059A000312177D7E00EF7818C333CE33CED8F915
:1005AA00FFEE3395E0FDFCD003D002D001D000EB82
:1005BA004FFFEA4EFEE94DFDE84CFC780E120AD0D8
:1005CA007841E22404F218E23400F2784008E2FFAB
:1005DA002401F218E2FE3400F2C3EF9402EE940210
:1005EA00500512177D80E4E4FD7F011216F27BFFAD
:1005FA007A14790012179C780EE2FC08E2FD08E2F0
:10060A00FE08E2FF1215327842EBF208EAF208E934
:10061A00F2E47840F208F27840E2FE08E2FFC3947E
:10062A0008EE9400503108E2FB08E2FA08E2F98F7A
:10063A00828E831208FAFF1218577841E22401F2D7
:10064A0018E23400F280D0E4FD7F011216F27BFF3B
:10065A007A1479090208F6780EE2FC08E2FD08E24B
:10066A00FE08E2FF12124D40030208E6E47840F267
:10067A0008F212177D7841E22401F218E23400F2FE
:10068A00C308E2940D18E2940040E712177D780936
:10069A00EFF212177D7812E4F208EFF212177DEFEB
:1006AA00FE7812E24EF208E2F27841E22403F218EE
:1006BA00E23400F2784008E2FF2401F218E2FE3444
:1006CA0000F2C3EF9424EE9400500512177D80E4E3
:1006DA0012177DE4FCFDFE780A120AD0780AE2FBC2
:1006EA0008E2F908E2FA08E2CBF8C000C001C00249
:1006FA00C00312177DEFFE3395E0FDFCD003D00254
:10070A00D001D000EBFFEA4EFEE94DFDE84CFC7843
:10071A000A120AD0780AE2FB08E2F908E2FA08E2C9
:10072A00CBF8C000C001C002C00312177D7E00EFE3
:10073A007810C333CE33CED8F9FFEE3395E0FDFC03
:10074A00D003D002D001D000EB4FFFEA4EFEE94DB4
:10075A00FDE84CFC780A120AD0780AE2FB08E2F9B2
:10076A0008E2FA08E2CBF8C000C001C002C00312D6
:10077A00177D7E00EF7818C333CE33CED8F9FFEE5B
:10078A003395E0FDFCD003D002D001D000EB4FFF3F
:10079A00EA4EFEE94DFDE84CFC780A120AD078418F
:1007AA00E22404F218E23400F2784008E2FF24015D
:1007BA00F218E2FE3400F2C3EF9402EE94025005FE
:1007CA0012177D80E412001EE4FD7F021216F27BEE
:1007DA00FF7A14791A12179C7809E2FF12171E7809
:1007EA0042EBF208EAF208E9F2E47840F208F27819
:1007FA0040E2FE08E2FFC39403EE9400502108E2AF
:10080A00FB08E2FA08E2F98F828E831208FAFF12D5
:10081A0018577841E22401F218E23400F280D0E459
:10082A00FD7F031216F27BFF7A14792812179C783F
:10083A0012E2FE08E2FF12137D7842EBF208EAF2B6
:10084A0008E9F2E47840F208F27840E2FE08E2FFB2
:10085A00C39405EE9400502108E2FB08E2FA08E28C
:10086A00F98F828E831208FAFF1218577841E22410
:10087A0001F218E23400F280D07FB87E0B12000336
:10088A001218947BFF7A14793412179C780AE2FCC6
:10089A0008E2FD08E2FE08E2FF1215327842EBF2A6
:1008AA0008EAF208E9F2E47840F208F27840E2FE57
:1008BA0008E2FFC39408EE9400503408E2FB08E211
:1008CA00FA08E2F98F828E831208FAFF1218577813
:1008DA0041E22401F218E23400F280D012001EE450
:0F08EA00FD7F021216F27BFF7A14793D12179CE4
:0108F90022DC
:050E2D007862120AD0FA
:100E3200E47B80FAF9F8C0007862E2FC08E2FD087F
:100E4200E2FE08E2FFD000120A077805E2FB08E2A0
:100E5200F908E2FA08E2CBF8EB2FFFEA3EFEE93DA1
:100E6200FDE83CFC7866120AD07862E2FC08E2FDFA
:100E720008E2FE08E2547FFF786AEFF2786C120A09
:100E8200DC000000007866E2FC08E2FD08E2FE08F1
:100E9200E2FF12124D4003020FA4E4786BF2786B6A
:100EA200E2FFC39480748094804003020F9E18E294
:100EB200FEEF6E6003020F8A12177DE4FCFDFE78DE
:100EC2006C120AD0786CE2FB08E2F908E2FA08E256
:100ED200CBF8C000C001C002C00312177DEFFE3381
:100EE20095E0FDFCD003D002D001D000EBFFEA4E2A
:100EF200FEE94DFDE84CFC786C120AD0786CE2FBFE
:100F020008E2F908E2FA08E2CBF8C000C001C00228
:100F1200C00312177D7E00EF7810C333CE33CED8D4
:100F2200F9FFEE3395E0FDFCD003D002D001D000F2
:100F3200EB4FFFEA4EFEE94DFDE84CFC786C120ADD
:100F4200D0786CE2FB08E2F908E2FA08E2CBF8C0DA
:100F520000C001C002C00312177D7E00EF7818C3E3
:100F620033CE33CED8F9FFEE3395E0FDFCD003D07B
:100F720002D001D000EB4FFFEA4EFEE94DFDE84CF6
:100F8200FC786C120AD0800C12177D12177D121792
:100F92007D12177D786BE204F2020EA012177D1209
:0F0FA200177D786CE2FC08E2FD08E2FE08E2FF32
:010FB100221D
:100026007854120ADC000000027812E2FE08E2FFB1
:10003600E4FCFD780EE2FB08E2F908E2FA08E2CBFE
:10004600F8EB2FFFEA3EFEED39FDEC38FC780512A1
:100056000AD0780AE2FC08E2FD08E2FE08E2FF7830
:1000660005E2FB08E2F908E2FA08E2CBF8EB2FFF1B
:10007600EA3EFEE93DFDE83CFC780AE2FB08E2F9CF
:1000860008E2FA08E2CBF8EB2FFFEA3EFEE93DFD77
:10009600E83CFC7858120AD07801120ADC0000000D
:1000A60000E4FD7F011216F27BFF7A14794E1217D7
:1000B6009C1218B374FFFFFEFD7C0F7854E2FB0818
:1000C600E2F908E2FA08E2CBF8C3120A99700302D1
:1000D600044DE4785CF27809E2FF785CE2C39F4065
:1000E600030204227854E2FC08E2FD08E2FE08E27C
:1000F60024FEFFEE34FFFEED34FFFDEC34FFFCC0C2
:1001060004A905AA06AB077809E2FFE4FCFDFED0C8
:100116000012097CC004A905AA06AB07785CE2FFB9
:10012600E4FCFDFED000EB2FFFEE3AFEED39FDECD0
:1001360038FC7858E2FB08E2F908E2FA08E2CBF864
:10014600EB2FFFEA3EFEE93DFDE83CFC12124D4076
:100156000302041AE4785DF2785DE2C394107480B9
:1001660094804003020401E408F2785EE2C3940836
:1001760074809480501212177D785EE22440F8EF66
:10018600F2785EE204F280E2E4785EF2785EE2C340
:10019600940374809480501212177D785EE224488E
:1001A600F8EFF2785EE204F280E212177D784BEF08
:1001B600F2642070077840E264E5701DE4785EF230
:1001C600785EE2C394147480948040030203F912AB
:1001D600177D785EE204F280E7E4785EF2785EE20C
:1001E600C3940874809480500A12177D785EE204E6
:1001F600F280EA12177D7E00EF7810C333CE33CE3D
:10020600D8F9FFEE3395E0FDFC784C120AD0784C15
:10021600E2FB08E2F908E2FA08E2CBF8C000C00106
:10022600C002C00312177D7E00EF7818C333CE33A9
:10023600CED8F9FFEE3395E0FDFCD003D002D00115
:10024600D000EB4FFFEA4EFEE94DFDE84CFC784C42
:10025600120AD0E4785EF2785EE2C3940474809465
:1002660080500A12177D785EE204F280EA784CE24A
:10027600FB08E2F908E2FA08E2CBF8C000C001C0C8
:1002860002C00312177DD003D002D001D000EB4F7D
:10029600FFEAFEE9FDE8FC784C120AD0784CE2FB56
:1002A60008E2F908E2FA08E2CBF8C000C001C00291
:1002B600C00312177DEFFE3395E0FDFCD003D0029C
:1002C600D001D000EBFFEA4EFEE94DFDE84CFC788C
:1002D6004C120AD012177DE4FCFDFE7850120AD0AB
:1002E6007850E2FB08E2F908E2FA08E2CBF8C0002F
:1002F600C001C002C00312177DEFFE3395E0FDFC7E
:10030600D003D002D001D000EBFFEA4EFEE94DFD4E
:10031600E84CFC7850120AD07850E2FB08E2F90863
:10032600E2FA08E2CBF8C000C001C002C00312170F
:100336007D7E00EF7810C333CE33CED8F9FFEE338F
:1003460095E0FDFCD003D002D001D000EB4FFFEAD0
:100356004EFEE94DFDE84CFC7850120AD07850E28A
:10036600FB08E2F908E2FA08E2CBF8C000C001C0D7
:1003760002C00312177D7E00EF7818C333CE33CE4A
:10038600D8F9FFEE3395E0FDFCD003D002D001D0C2
:1003960000EB4FFFEA4EFEE94DFDE84CFC785012AB
:1003A6000AD07840E26442704A08E2644170440828
:1003B600E26444703E08E26441703808E2645070BA
:1003C6003208E26450702C08E2644C702608E2B4ED
:1003D600452108E2B4421C08E2B4491708E2B44ECB
:1003E60012784CE2FC08E2FD08E2FE08E2FF780122
:1003F600120AD0785DE204F202015E12177D12172E
:100406007D7801E2FC08E2FD08E2FE08E2FFEC4D21
:100416004E4F7008785CE204F20200DC7801E2FCE0
:1004260008E2FD08E2FE08E2FFEC4D4E4F70187838
:1004360054E2FC08E2FD08E2FE08E2FF120E2D7807
:1004460054120AD00200BA7801E2FC08E2FD08E282
:10045600FE08E2FFEC4D4E4F6057E4FD7F02121698
:10046600F27BFF7A14795F12179C7801E2FC08E2AE
:10047600FD08E2FE08E2FF121532785FEBF208EAA9
:10048600F208E9F2E4785EF2785EE2FFC39408745B
:10049600809480502C08E2FB08E2FA08E2F98F8289
:1004A6007583001208FAFF121857785EE204F2808C
:1004B600D7E4FD7F021216F27BFF7A1479681217D1
:0404C6009C02001E76
:10165600E4FEEEC3940874809480500FC2A5EF3365
:1016660092A7EF25E0FFD2A50E80E7E4FEEEC39435
:101676000874809480500FC2A5ED3392A7ED25E043
:06168600FDD2A50E80E775
:01168C00223B
:10174900AC07AA05C2A6784FE2FD121656AF0418D7
:10175900E2FD121656AF04AE03AD06121656AF04DB
:0A176900AE02AD06121656D2A622FB
:0D188700AE05AB06784EEEF208F2021749EE
:1014D400E4FD7F0C1218870000007D037F0A1218B8
:1014E40087E4FD7F09121887E4FD7F01121887E461
:1014F400FD7F02121887E4FD7F03121887E4FD7F45
:1015040004121887E4FD7F05121887E4FD7F061294
:101514001887E4FD7F07121887E4FD7F08121887F7
:0E1524007D017F0C1218877D077F0B02188750
:10158A00D2F4C6B5B2E2CAD4D6D02E2E2E00B0B44A
:10159A00A3C3BCFCBCCCD0F82E2E2E00CDBCCFF100
:1015AA00B2E2CAD4D6D02E2E2E00B0B4A3C4BCFC4C
:1015BA00BCCCD0F82E2E2E0020202020B2A5B7C5F4
:0915CA00CDEAB3C9202020200065
:0318D90081340057
:0A18BD003094FD7F647E00020003FA
:0A18C7003096FD7F647E00020003EE
:0E187900438910758DF1758BC8D2ABD28E22CB
:100AF5001218947BFF7A15798A12179CD2007F7E93
:100B05001218D17FFF1218D17F061218D17F031258
:100B150018D1E4FF1218D1E4FF1218D17F0312187F
:100B2500D17FFE1218D17FF51218D17FEF1218D19F
:100B35002000FDE4FD7F011216F27BFF7A157998FE
:100B450012179C1218BDE4FD7F021216F27BFF7A84
:100B55001579A612179CE4FD7F031216F2784174ED
:100B650080F2E418F27840E2C394087480948050CF
:100B75005B08E2FD7F011218877841E2FD7F0212D2
:100B850018877841E2FD7F031218877841E2FD7FDF
:100B9500041218877841E2FD7F051218877841E233
:100BA500FD7F061218877841E2FD7F0712188778C6
:100BB50041E2FD7F081218877841E2C313F27F6492
:100BC5007E001200037840E204F28099E47840F256
:100BD5007840E2FF7E00C39408748094804003024D
:100BE5000C82EF70047DFF80027D007F0112188763
:100BF5007840E2640170047DFF80027D007F02126F
:100C050018877840E2640270047DFF80027D007FD2
:100C1500031218877840E2640370047DFF80027D2B
:100C2500007F041218877840E2640470047DFF8019
:100C3500027D007F051218877840E2640570047D07
:100C4500FF80027D007F061218877840E2640670F7
:100C5500047DFF80027D007F071218877840E264DB
:100C65000770047DFF80027D007F081218877F646E
:100C75007E001200037840E204F2020BD5E4FD7F0A
:100C8500081218877BFF7A1579B412179C0218C7CA
:10161500E4784AF2784AE2FEC394087480948050D4
:101625002DE2FD04FF74142DF8E2FD784AE2FC2456
:101635001CF8E2FB74242CF8E2784EF2742C2EF898
:10164500E2784FF2121749784AE204F280C6D201D5
:011655002272
:1017C400E4784AF2784AE2C39420748094805012F8
:1017D40012177D784AE22414F8EFF2784AE204F210
:0217E40080E2A1
:0117E60022E0
:100C95007801E2FC08E2FD08E2FE08E2FF78401276
:100CA5000AD0780AE2FC08E2FD08E2FE08E2FF78D5
:100CB50005E2FB08E2F908E2FA08E2CBF8EB2FFFC0
:100CC500EA3EFEE93DFDE83CFC780AE2FB08E2F974
:100CD50008E2FA08E2CBF8EB2FFFEA3EFEE93DFD1C
:100CE500E83CFC7844120AD0D2AB1218791218B33A
:100CF5007F7E1218D17FFF1218D17F061218D17F7F
:100D0500031218D1E4FF1218D1E4FF1218D17F02A3
:100D15001218D17FFE1218D17FF61218D17FEF126B
:100D250018D17801E2FC08E2FD08E2FE08E2FF02C4
:100D35000E1074FFFFFEFD7C0F7840E2FB08E2F920
:100D450008E2FA08E2CBF8C3120A997003020E18FA
:100D5500E47848F27809E2FF7848E2C39F4003024D
:100D65000E007840E2FC08E2FD08E2FE08E224FEFF
:100D7500FFEE34FFFEED34FFFDEC34FFFCC004A9AB
:100D850005AA06AB077809E2FFE4FCFDFED00012D8
:100D9500097C7844E2FB08E2F908E2FA08E2CBF8BC
:100DA500EB2FFFEA3EFEE93DFDE83CFCC004A9054A
:100DB500AA06AB077848E2FFE4FCFDFED000EB2F66
:100DC500FFEE3AFEED39FDEC38FC12124DE47849A0
:100DD500F27849E2C394107480948050101217C4BD
:100DE5001216152001FD7849E204F280E412177D00
:100DF50012177D7848E204F2020D597840E2FC08AA
:100E0500E2FD08E2FE08E2FF120E2D7840120AD03C
:100E1500020D37C28E12001EE4FD7F031216F27B0F
:080E2500FF7A1579C202179C47
:03001B000216C406
:1016C400C0E0C0D075D000C000C007758DF1758B27
:1016D400C87834E2FF04F2D3EF9414748094804009
:0E16E40004E4F2C201D007D000D0D0D0E03232
:0318DC00813F0049
:1018030053877F75985075C83475CBFF75CAAF85FC
:0C181300CBCD85CACCD2CAD2AFD2AC2259
:0818D1008F993099FDC29922A4
:0300230002168D35
:10168D00C0E0C0D075D000C000C007309820783FB2
:10169D00E2FF04F274352FF8E599F2C298783FE233
:1016AD00640A7001F27838E2643D7002C200D0071E
:0716BD00D000D0D0D0E032D4
:1012FD000211A5E493A3F8E493A34003F68001F251
:10130D0008DFF48029E493A3F85407240CC8C333F1
:10131D00C4540F4420C8834004F456800146F6DFC0
:10132D00E4800B01020408102040809018D9E47E5F
:10133D00019360BCA3FF543F30E509541FFEE493B5
:10134D00A360010ECF54C025E060A840B8E493A37C
:10135D00FAE493A3F8E493A3C8C582C8CAC583CAA7
:10136D00F0A3C8C582C8CAC583CADFE9DEE780BE5F
:0118DF000008
:1008FA00BB010CE58229F582E5833AF583E02250B3
:10090A0006E92582F8E622BBFE06E92582F8E222FC
:0D091A00E58229F582E5833AF583E4932216
:10092700BC000BBE0029EF8DF084FFADF022E4CCB4
:10093700F875F008EF2FFFEE33FEEC33FCEE9DEC7D
:10094700984005FCEE9DFE0FD5F0E9E4CEFD22EDC3
:10095700F8F5F0EE8420D21CFEADF075F008EF2F0D
:10096700FFED33FD4007985006D5F0F222C398FDFE
:050977000FD5F0EA229B
:10097C00E88FF0A4CC8BF0A42CFCE98EF0A42CFC1A
:10098C008AF0EDA42CFCEA8EF0A4CDA8F08BF0A498
:10099C002DCC3825F0FDE98FF0A42CCD35F0FCEBF7
:1009AC008EF0A4FEA9F0EB8FF0A4CFC5F02ECD39BC
:0F09BC00FEE43CFCEAA42DCE35F0FDE43CFC2229
:1009CB0075F008758200EF2FFFEE33FECD33CDCCE3
:1009DB0033CCC58233C5829BED9AEC99E582984066
:1009EB000CF582EE9BFEED9AFDEC99FC0FD5F0D643
:1009FB00E4CEFBE4CDFAE4CCF9A88222B800C1B96D
:100A0B000059BA002DEC8BF084CFCECDFCE5F0CBAA
:100A1B00F97818EF2FFFEE33FEED33FDEC33FCEBE3
:100A2B0033FB10D703994004EB99FB0FD8E5E4F99E
:100A3B00FA227818EF2FFFEE33FEED33FDEC33FC8B
:100A4B00C933C910D7059BE99A4007EC9BFCE99A7F
:100A5B00F90FD8E0E4C9FAE4CCFB2275F010EF2FC4
:100A6B00FFEE33FEED33FDCC33CCC833C810D707C4
:100A7B009BEC9AE899400AED9BFDEC9AFCE899F8FF
:0E0A8B000FD5F0DAE4CDFBE4CCFAE4C8F92292
:100A9900EB9FF5F0EA9E42F0E99D42F0E89C45F0B3
:010AA900222A
:100AAA00E8600FECC313FCED13FDEE13FEEF13FF2A
:030ABA00D8F1224E
:100ABD00E8600FEFC333FFEE33FEED33FDEC33FC97
:030ACD00D8F1223B
:0C0AD000ECF208EDF208EEF208EFF22262
:100ADC00D083D082E493F208740193F208740293E9
:090AEC00F208740393F274047320
:00000001FF
